{
  "contractName": "Compraventa",
  "abi": [
    {
      "inputs": [
        {
          "internalType": "uint256",
          "name": "_precio",
          "type": "uint256"
        }
      ],
      "payable": false,
      "stateMutability": "nonpayable",
      "type": "constructor"
    },
    {
      "constant": false,
      "inputs": [],
      "name": "enviarFondosVendedor",
      "outputs": [],
      "payable": true,
      "stateMutability": "payable",
      "type": "function"
    },
    {
      "constant": false,
      "inputs": [],
      "name": "enviarFondosComprador",
      "outputs": [],
      "payable": true,
      "stateMutability": "payable",
      "type": "function"
    },
    {
      "constant": false,
      "inputs": [],
      "name": "liberarFondos",
      "outputs": [],
      "payable": false,
      "stateMutability": "nonpayable",
      "type": "function"
    }
  ],
  "bytecode": "0x608060405234801561001057600080fd5b506040516106b73803806106b78339818101604052602081101561003357600080fd5b810190808051906020019092919050505080600181905550600181026002819055506001810260038190555060008060006101000a81548160ff0219169083600381111561007d57fe5b021790555050610625806100926000396000f3fe6080604052600436106100345760003560e01c80635e5046fd14610039578063866e0aea14610050578063d3436a1a1461005a575b600080fd5b34801561004557600080fd5b5061004e610064565b005b6100586102fe565b005b610062610479565b005b6002600381111561007157fe5b6000809054906101000a900460ff16600381111561008b57fe5b146100fe576040517f08c379a00000000000000000000000000000000000000000000000000000000081526004018080602001828103825260118152602001807f65737461646f20696e636f72726563746f00000000000000000000000000000081525060200191505060405180910390fd5b600560009054906101000a900473ffffffffffffffffffffffffffffffffffffffff1673ffffffffffffffffffffffffffffffffffffffff163373ffffffffffffffffffffffffffffffffffffffff16146101c1576040517f08c379a00000000000000000000000000000000000000000000000000000000081526004018080602001828103825260118152602001807f656d69736f7220696e636f72726563746f00000000000000000000000000000081525060200191505060405180910390fd5b60036000806101000a81548160ff021916908360038111156101df57fe5b0217905550600460009054906101000a900473ffffffffffffffffffffffffffffffffffffffff1673ffffffffffffffffffffffffffffffffffffffff166001546002540160405180600001905060006040518083038185875af1925050503d806000811461026a576040519150601f19603f3d011682016040523d82523d6000602084013e61026f565b606091505b505050600560009054906101000a900473ffffffffffffffffffffffffffffffffffffffff1673ffffffffffffffffffffffffffffffffffffffff1660035460405180600001905060006040518083038185875af1925050503d80600081146102f4576040519150601f19603f3d011682016040523d82523d6000602084013e6102f9565b606091505b505050565b6001600381111561030b57fe5b6000809054906101000a900460ff16600381111561032557fe5b14610398576040517f08c379a00000000000000000000000000000000000000000000000000000000081526004018080602001828103825260118152602001807f65737461646f20696e636f72726563746f00000000000000000000000000000081525060200191505060405180910390fd5b600154600354013414610413576040517f08c379a00000000000000000000000000000000000000000000000000000000081526004018080602001828103825260128152602001807f666f6e646f7320696e636f72726563746f73000000000000000000000000000081525060200191505060405180910390fd5b33600560006101000a81548173ffffffffffffffffffffffffffffffffffffffff021916908373ffffffffffffffffffffffffffffffffffffffff16021790555060026000806101000a81548160ff0219169083600381111561047257fe5b0217905550565b6000600381111561048657fe5b6000809054906101000a900460ff1660038111156104a057fe5b14610513576040517f08c379a00000000000000000000000000000000000000000000000000000000081526004018080602001828103825260118152602001807f65737461646f20696e636f72726563746f00000000000000000000000000000081525060200191505060405180910390fd5b600254341461058a576040517f08c379a00000000000000000000000000000000000000000000000000000000081526004018080602001828103825260128152602001807f666f6e646f7320696e636f72726563746f73000000000000000000000000000081525060200191505060405180910390fd5b33600460006101000a81548173ffffffffffffffffffffffffffffffffffffffff021916908373ffffffffffffffffffffffffffffffffffffffff16021790555060016000806101000a81548160ff021916908360038111156105e957fe5b021790555056fea265627a7a723158203e407076dabe17757f100117a74cbcd09236132cf2e52d79cb089c83f48f998964736f6c63430005100032",
  "source": "pragma solidity 0.5.16;\n\ncontract Compraventa {\n\n    enum Estado {\n        CONTRATO_CREADO,\n        VENDEDOR_ENVIO_FONDOS,\n        COMPRADOR_ENVIO_FONDOS,\n        FONDOS_LIBERADOS\n    }\n    uint constant FACTOR_DEPOSITO_VENDEDOR = 1;\n    uint constant FACTOR_DEPOSITO_COMPRADOR = 1;\n\n    Estado estado;\n    uint precio;\n    uint depositoVendedor;\n    uint depositoComprador;\n    address vendedor;\n    address comprador;\n\n    constructor (uint _precio) public {\n        precio = _precio;\n        depositoVendedor = _precio * FACTOR_DEPOSITO_VENDEDOR;\n        depositoComprador = _precio * FACTOR_DEPOSITO_COMPRADOR;\n        estado = Estado.CONTRATO_CREADO;\n    }\n\n    function enviarFondosVendedor () public payable {\n        require(estado == Estado.CONTRATO_CREADO, \"estado incorrecto\");\n        require(msg.value == depositoVendedor, \"fondos incorrectos\");\n        vendedor = msg.sender;\n        estado = Estado.VENDEDOR_ENVIO_FONDOS;\n    }\n\n    function enviarFondosComprador () public payable {\n        require(estado == Estado.VENDEDOR_ENVIO_FONDOS, \"estado incorrecto\");\n        require(msg.value == depositoComprador + precio, \"fondos incorrectos\");\n        comprador = msg.sender;\n        estado = Estado.COMPRADOR_ENVIO_FONDOS;\n    }\n\n    function liberarFondos () public {\n        require(estado == Estado.COMPRADOR_ENVIO_FONDOS, \"estado incorrecto\");\n        require(msg.sender == comprador, \"emisor incorrecto\");\n        estado = Estado.FONDOS_LIBERADOS;\n        vendedor.call.value(depositoVendedor + precio)(\"\");\n        comprador.call.value(depositoComprador)(\"\");\n    }\n\n}\n",
  "sourcePath": "/home/e18r/code/markethPlace/contracts/Compraventa.sol",
  "compiler": {
    "name": "solc",
    "version": "0.5.16+commit.9c3226ce.Emscripten.clang"
  },
  "schemaVersion": "3.2.2",
  "updatedAt": "2020-07-21T12:56:21.752Z",
  "devdoc": {
    "methods": {}
  },
  "userdoc": {
    "methods": {}
  }
}