{
  "contractName": "Compraventa",
  "abi": [
    {
      "inputs": [
        {
          "internalType": "uint256",
          "name": "_precio",
          "type": "uint256"
        }
      ],
      "payable": false,
      "stateMutability": "nonpayable",
      "type": "constructor"
    },
    {
      "constant": true,
      "inputs": [],
      "name": "estado",
      "outputs": [
        {
          "internalType": "enum Compraventa.Estado",
          "name": "",
          "type": "uint8"
        }
      ],
      "payable": false,
      "stateMutability": "view",
      "type": "function"
    },
    {
      "constant": false,
      "inputs": [],
      "name": "enviarFondosVendedor",
      "outputs": [],
      "payable": true,
      "stateMutability": "payable",
      "type": "function"
    },
    {
      "constant": false,
      "inputs": [],
      "name": "enviarFondosComprador",
      "outputs": [],
      "payable": true,
      "stateMutability": "payable",
      "type": "function"
    },
    {
      "constant": false,
      "inputs": [],
      "name": "liberarFondos",
      "outputs": [],
      "payable": false,
      "stateMutability": "nonpayable",
      "type": "function"
    }
  ],
  "bytecode": "0x608060405234801561001057600080fd5b506040516107173803806107178339818101604052602081101561003357600080fd5b810190808051906020019092919050505080600181905550600181026002819055506001810260038190555060008060006101000a81548160ff0219169083600381111561007d57fe5b021790555050610685806100926000396000f3fe60806040526004361061003f5760003560e01c80635e5046fd14610044578063688e34671461005b578063866e0aea14610094578063d3436a1a1461009e575b600080fd5b34801561005057600080fd5b506100596100a8565b005b34801561006757600080fd5b50610070610344565b6040518082600381111561008057fe5b60ff16815260200191505060405180910390f35b61009c610356565b005b6100a66104d5565b005b60028060038111156100b657fe5b6000809054906101000a900460ff1660038111156100d057fe5b14610143576040517f08c379a00000000000000000000000000000000000000000000000000000000081526004018080602001828103825260118152602001807f45737461646f20696e636f72726563746f00000000000000000000000000000081525060200191505060405180910390fd5b600560009054906101000a900473ffffffffffffffffffffffffffffffffffffffff1673ffffffffffffffffffffffffffffffffffffffff163373ffffffffffffffffffffffffffffffffffffffff1614610206576040517f08c379a00000000000000000000000000000000000000000000000000000000081526004018080602001828103825260118152602001807f456d69736f7220696e636f72726563746f00000000000000000000000000000081525060200191505060405180910390fd5b60036000806101000a81548160ff0219169083600381111561022457fe5b0217905550600460009054906101000a900473ffffffffffffffffffffffffffffffffffffffff1673ffffffffffffffffffffffffffffffffffffffff166001546002540160405180600001905060006040518083038185875af1925050503d80600081146102af576040519150601f19603f3d011682016040523d82523d6000602084013e6102b4565b606091505b505050600560009054906101000a900473ffffffffffffffffffffffffffffffffffffffff1673ffffffffffffffffffffffffffffffffffffffff1660035460405180600001905060006040518083038185875af1925050503d8060008114610339576040519150601f19603f3d011682016040523d82523d6000602084013e61033e565b606091505b50505050565b6000809054906101000a900460ff1681565b600180600381111561036457fe5b6000809054906101000a900460ff16600381111561037e57fe5b146103f1576040517f08c379a00000000000000000000000000000000000000000000000000000000081526004018080602001828103825260118152602001807f45737461646f20696e636f72726563746f00000000000000000000000000000081525060200191505060405180910390fd5b6001546003540180341461046d576040517f08c379a00000000000000000000000000000000000000000000000000000000081526004018080602001828103825260128152602001807f466f6e646f7320696e636f72726563746f73000000000000000000000000000081525060200191505060405180910390fd5b33600560006101000a81548173ffffffffffffffffffffffffffffffffffffffff021916908373ffffffffffffffffffffffffffffffffffffffff16021790555060026000806101000a81548160ff021916908360038111156104cc57fe5b02179055505050565b60008060038111156104e357fe5b6000809054906101000a900460ff1660038111156104fd57fe5b14610570576040517f08c379a00000000000000000000000000000000000000000000000000000000081526004018080602001828103825260118152602001807f45737461646f20696e636f72726563746f00000000000000000000000000000081525060200191505060405180910390fd5b6002548034146105e8576040517f08c379a00000000000000000000000000000000000000000000000000000000081526004018080602001828103825260128152602001807f466f6e646f7320696e636f72726563746f73000000000000000000000000000081525060200191505060405180910390fd5b33600460006101000a81548173ffffffffffffffffffffffffffffffffffffffff021916908373ffffffffffffffffffffffffffffffffffffffff16021790555060016000806101000a81548160ff0219169083600381111561064757fe5b0217905550505056fea265627a7a72315820c5c7c7b916e84f66b37df1e873272178a7dacf19e783c4adf01a0e791b0bd33a64736f6c63430005100032",
  "source": "pragma solidity 0.5.16;\n\ncontract Compraventa {\n\n    enum Estado {\n        CONTRATO_CREADO,\n        VENDEDOR_ENVIO_FONDOS,\n        COMPRADOR_ENVIO_FONDOS,\n        FONDOS_LIBERADOS\n    }\n    uint constant FACTOR_DEPOSITO_VENDEDOR = 1;\n    uint constant FACTOR_DEPOSITO_COMPRADOR = 1;\n\n    Estado public estado;\n    uint precio;\n    uint depositoVendedor;\n    uint depositoComprador;\n    address vendedor;\n    address comprador;\n\n    constructor (uint _precio) public {\n        precio = _precio;\n        depositoVendedor = _precio * FACTOR_DEPOSITO_VENDEDOR;\n        depositoComprador = _precio * FACTOR_DEPOSITO_COMPRADOR;\n        estado = Estado.CONTRATO_CREADO;\n    }\n\n    modifier estadoValido(Estado _estadoReq) {\n        require(estado == _estadoReq, 'Estado incorrecto');\n        _;\n    }\n\n    modifier fondoCorrecto(uint _tipoDeposito) {\n        require(msg.value == _tipoDeposito, 'Fondos incorrectos');\n        _;\n    }\n\n    modifier onlyComprador {\n        require(msg.sender == comprador, 'Emisor incorrecto');\n        _;\n    }\n\n    function enviarFondosVendedor() \n        public\n        payable\n        estadoValido(Estado.CONTRATO_CREADO)\n        fondoCorrecto(depositoVendedor)\n    {\n        vendedor = msg.sender;\n        estado = Estado.VENDEDOR_ENVIO_FONDOS;\n    }\n\n    function enviarFondosComprador() \n        public\n        payable\n        estadoValido(Estado.VENDEDOR_ENVIO_FONDOS)\n        fondoCorrecto(depositoComprador + precio)\n    {\n        comprador = msg.sender;\n        estado = Estado.COMPRADOR_ENVIO_FONDOS;\n    }\n\n    function liberarFondos()\n        public\n        estadoValido(Estado.COMPRADOR_ENVIO_FONDOS)\n        onlyComprador\n    {\n        estado = Estado.FONDOS_LIBERADOS;\n        vendedor.call.value(depositoVendedor + precio)(\"\");\n        comprador.call.value(depositoComprador)(\"\");\n    }\n\n}\n",
  "sourcePath": "/home/e18r/code/markethPlace/contracts/Compraventa.sol",
  "compiler": {
    "name": "solc",
    "version": "0.5.16+commit.9c3226ce.Emscripten.clang"
  },
  "schemaVersion": "3.2.3",
  "updatedAt": "2020-07-28T12:44:54.774Z",
  "devdoc": {
    "methods": {}
  },
  "userdoc": {
    "methods": {}
  }
}