{
  "contractName": "Compraventa",
  "abi": [
    {
      "inputs": [
        {
          "internalType": "uint256",
          "name": "_precio",
          "type": "uint256"
        }
      ],
      "payable": false,
      "stateMutability": "nonpayable",
      "type": "constructor"
    },
    {
      "anonymous": false,
      "inputs": [],
      "name": "CambioEstado",
      "type": "event"
    },
    {
      "constant": true,
      "inputs": [],
      "name": "comprador",
      "outputs": [
        {
          "internalType": "address",
          "name": "",
          "type": "address"
        }
      ],
      "payable": false,
      "stateMutability": "view",
      "type": "function"
    },
    {
      "constant": true,
      "inputs": [],
      "name": "depositoComprador",
      "outputs": [
        {
          "internalType": "uint256",
          "name": "",
          "type": "uint256"
        }
      ],
      "payable": false,
      "stateMutability": "view",
      "type": "function"
    },
    {
      "constant": true,
      "inputs": [],
      "name": "depositoVendedor",
      "outputs": [
        {
          "internalType": "uint256",
          "name": "",
          "type": "uint256"
        }
      ],
      "payable": false,
      "stateMutability": "view",
      "type": "function"
    },
    {
      "constant": true,
      "inputs": [],
      "name": "estado",
      "outputs": [
        {
          "internalType": "enum Compraventa.Estado",
          "name": "",
          "type": "uint8"
        }
      ],
      "payable": false,
      "stateMutability": "view",
      "type": "function"
    },
    {
      "constant": true,
      "inputs": [],
      "name": "precio",
      "outputs": [
        {
          "internalType": "uint256",
          "name": "",
          "type": "uint256"
        }
      ],
      "payable": false,
      "stateMutability": "view",
      "type": "function"
    },
    {
      "constant": true,
      "inputs": [],
      "name": "vendedor",
      "outputs": [
        {
          "internalType": "address",
          "name": "",
          "type": "address"
        }
      ],
      "payable": false,
      "stateMutability": "view",
      "type": "function"
    },
    {
      "constant": false,
      "inputs": [],
      "name": "enviarFondosVendedor",
      "outputs": [],
      "payable": true,
      "stateMutability": "payable",
      "type": "function"
    },
    {
      "constant": false,
      "inputs": [],
      "name": "enviarFondosComprador",
      "outputs": [],
      "payable": true,
      "stateMutability": "payable",
      "type": "function"
    },
    {
      "constant": false,
      "inputs": [],
      "name": "liberarFondos",
      "outputs": [],
      "payable": false,
      "stateMutability": "nonpayable",
      "type": "function"
    }
  ],
  "bytecode": "0x608060405234801561001057600080fd5b5060405161096f38038061096f8339818101604052602081101561003357600080fd5b810190808051906020019092919050505080600181905550600181026002819055506001810260038190555060008060006101000a81548160ff0219169083600381111561007d57fe5b0217905550506108dd806100926000396000f3fe6080604052600436106100865760003560e01c8063688e346711610059578063688e34671461017b578063866e0aea146101b45780639e66e0f3146101be578063c00c6357146101e9578063d3436a1a1461021457610086565b80630f50b6e71461008b5780633182237f146100e25780634a335792146101395780635e5046fd14610164575b600080fd5b34801561009757600080fd5b506100a061021e565b604051808273ffffffffffffffffffffffffffffffffffffffff1673ffffffffffffffffffffffffffffffffffffffff16815260200191505060405180910390f35b3480156100ee57600080fd5b506100f7610244565b604051808273ffffffffffffffffffffffffffffffffffffffff1673ffffffffffffffffffffffffffffffffffffffff16815260200191505060405180910390f35b34801561014557600080fd5b5061014e61026a565b6040518082815260200191505060405180910390f35b34801561017057600080fd5b50610179610270565b005b34801561018757600080fd5b50610190610538565b604051808260038111156101a057fe5b60ff16815260200191505060405180910390f35b6101bc61054a565b005b3480156101ca57600080fd5b506101d36106f5565b6040518082815260200191505060405180910390f35b3480156101f557600080fd5b506101fe6106fb565b6040518082815260200191505060405180910390f35b61021c610701565b005b600560009054906101000a900473ffffffffffffffffffffffffffffffffffffffff1681565b600460009054906101000a900473ffffffffffffffffffffffffffffffffffffffff1681565b60025481565b600280600381111561027e57fe5b6000809054906101000a900460ff16600381111561029857fe5b1461030b576040517f08c379a00000000000000000000000000000000000000000000000000000000081526004018080602001828103825260118152602001807f45737461646f20696e636f72726563746f00000000000000000000000000000081525060200191505060405180910390fd5b600560009054906101000a900473ffffffffffffffffffffffffffffffffffffffff1673ffffffffffffffffffffffffffffffffffffffff163373ffffffffffffffffffffffffffffffffffffffff16146103ce576040517f08c379a00000000000000000000000000000000000000000000000000000000081526004018080602001828103825260118152602001807f456d69736f7220696e636f72726563746f00000000000000000000000000000081525060200191505060405180910390fd5b60036000806101000a81548160ff021916908360038111156103ec57fe5b0217905550600460009054906101000a900473ffffffffffffffffffffffffffffffffffffffff1673ffffffffffffffffffffffffffffffffffffffff166001546002540160405180600001905060006040518083038185875af1925050503d8060008114610477576040519150601f19603f3d011682016040523d82523d6000602084013e61047c565b606091505b505050600560009054906101000a900473ffffffffffffffffffffffffffffffffffffffff1673ffffffffffffffffffffffffffffffffffffffff1660035460405180600001905060006040518083038185875af1925050503d8060008114610501576040519150601f19603f3d011682016040523d82523d6000602084013e610506565b606091505b5050507f9b7773924d4070b258985e15698ed85342422dd0e8f7fe6f5bb782c3ff9b0fb560405160405180910390a150565b6000809054906101000a900460ff1681565b600180600381111561055857fe5b6000809054906101000a900460ff16600381111561057257fe5b146105e5576040517f08c379a00000000000000000000000000000000000000000000000000000000081526004018080602001828103825260118152602001807f45737461646f20696e636f72726563746f00000000000000000000000000000081525060200191505060405180910390fd5b60015460035401803414610661576040517f08c379a00000000000000000000000000000000000000000000000000000000081526004018080602001828103825260128152602001807f466f6e646f7320696e636f72726563746f73000000000000000000000000000081525060200191505060405180910390fd5b33600560006101000a81548173ffffffffffffffffffffffffffffffffffffffff021916908373ffffffffffffffffffffffffffffffffffffffff16021790555060026000806101000a81548160ff021916908360038111156106c057fe5b02179055507f9b7773924d4070b258985e15698ed85342422dd0e8f7fe6f5bb782c3ff9b0fb560405160405180910390a15050565b60015481565b60035481565b600080600381111561070f57fe5b6000809054906101000a900460ff16600381111561072957fe5b1461079c576040517f08c379a00000000000000000000000000000000000000000000000000000000081526004018080602001828103825260118152602001807f45737461646f20696e636f72726563746f00000000000000000000000000000081525060200191505060405180910390fd5b600254803414610814576040517f08c379a00000000000000000000000000000000000000000000000000000000081526004018080602001828103825260128152602001807f466f6e646f7320696e636f72726563746f73000000000000000000000000000081525060200191505060405180910390fd5b33600460006101000a81548173ffffffffffffffffffffffffffffffffffffffff021916908373ffffffffffffffffffffffffffffffffffffffff16021790555060016000806101000a81548160ff0219169083600381111561087357fe5b02179055507f9b7773924d4070b258985e15698ed85342422dd0e8f7fe6f5bb782c3ff9b0fb560405160405180910390a1505056fea265627a7a723158205ee4b09040c6126534b8f73aca91cbcfb1828ead8c99b988253e1bf23c3ad61764736f6c63430005100032",
  "source": "pragma solidity 0.5.16;\n\ncontract Compraventa {\n\n    enum Estado {\n        CONTRATO_CREADO,\n        VENDEDOR_ENVIO_FONDOS,\n        COMPRADOR_ENVIO_FONDOS,\n        FONDOS_LIBERADOS\n    }\n    uint constant FACTOR_DEPOSITO_VENDEDOR = 1;\n    uint constant FACTOR_DEPOSITO_COMPRADOR = 1;\n\n    Estado public estado;\n    uint public precio;\n    uint public depositoVendedor;\n    uint public depositoComprador;\n    address public vendedor;\n    address public comprador;\n\n    event CambioEstado ();\n\n    constructor (uint _precio) public {\n        precio = _precio;\n        depositoVendedor = _precio * FACTOR_DEPOSITO_VENDEDOR;\n        depositoComprador = _precio * FACTOR_DEPOSITO_COMPRADOR;\n        estado = Estado.CONTRATO_CREADO;\n    }\n\n    modifier estadoValido(Estado _estadoReq) {\n        require(estado == _estadoReq, 'Estado incorrecto');\n        _;\n    }\n\n    modifier fondoCorrecto(uint _tipoDeposito) {\n        require(msg.value == _tipoDeposito, 'Fondos incorrectos');\n        _;\n    }\n\n    modifier onlyComprador {\n        require(msg.sender == comprador, 'Emisor incorrecto');\n        _;\n    }\n\n    function enviarFondosVendedor()\n        public\n        payable\n        estadoValido(Estado.CONTRATO_CREADO)\n        fondoCorrecto(depositoVendedor)\n    {\n        vendedor = msg.sender;\n        estado = Estado.VENDEDOR_ENVIO_FONDOS;\n        emit CambioEstado();\n    }\n\n    function enviarFondosComprador()\n        public\n        payable\n        estadoValido(Estado.VENDEDOR_ENVIO_FONDOS)\n        fondoCorrecto(depositoComprador + precio)\n    {\n        comprador = msg.sender;\n        estado = Estado.COMPRADOR_ENVIO_FONDOS;\n        emit CambioEstado();\n    }\n\n    function liberarFondos()\n        public\n        estadoValido(Estado.COMPRADOR_ENVIO_FONDOS)\n        onlyComprador\n    {\n        estado = Estado.FONDOS_LIBERADOS;\n        vendedor.call.value(depositoVendedor + precio)(\"\");\n        comprador.call.value(depositoComprador)(\"\");\n        emit CambioEstado();\n    }\n\n}\n",
  "sourcePath": "/home/e18r/code/markethPlace/contracts/Compraventa.sol",
  "compiler": {
    "name": "solc",
    "version": "0.5.16+commit.9c3226ce.Emscripten.clang"
  },
  "schemaVersion": "3.2.3",
  "updatedAt": "2020-08-07T00:57:22.448Z",
  "devdoc": {
    "methods": {}
  },
  "userdoc": {
    "methods": {}
  }
}