{
  "contractName": "Compraventa",
  "abi": [
    {
      "inputs": [
        {
          "internalType": "uint256",
          "name": "_precio",
          "type": "uint256"
        }
      ],
      "payable": false,
      "stateMutability": "nonpayable",
      "type": "constructor"
    },
    {
      "constant": false,
      "inputs": [],
      "name": "enviarFondosVendedor",
      "outputs": [],
      "payable": true,
      "stateMutability": "payable",
      "type": "function"
    },
    {
      "constant": false,
      "inputs": [],
      "name": "enviarFondosComprador",
      "outputs": [],
      "payable": true,
      "stateMutability": "payable",
      "type": "function"
    },
    {
      "constant": false,
      "inputs": [],
      "name": "liberarFondos",
      "outputs": [],
      "payable": false,
      "stateMutability": "nonpayable",
      "type": "function"
    }
  ],
  "bytecode": "0x608060405234801561001057600080fd5b506040516105e53803806105e58339818101604052602081101561003357600080fd5b810190808051906020019092919050505080600181905550600181026002819055506001810260038190555060016000819055505061056e806100776000396000f3fe6080604052600436106100345760003560e01c80635e5046fd14610039578063866e0aea14610050578063d3436a1a1461005a575b600080fd5b34801561004557600080fd5b5061004e610064565b005b6100586102c1565b005b6100626103ff565b005b6003600054146100dc576040517f08c379a00000000000000000000000000000000000000000000000000000000081526004018080602001828103825260118152602001807f65737461646f20696e636f72726563746f00000000000000000000000000000081525060200191505060405180910390fd5b600560009054906101000a900473ffffffffffffffffffffffffffffffffffffffff1673ffffffffffffffffffffffffffffffffffffffff163373ffffffffffffffffffffffffffffffffffffffff161461019f576040517f08c379a00000000000000000000000000000000000000000000000000000000081526004018080602001828103825260118152602001807f656d69736f7220696e636f72726563746f00000000000000000000000000000081525060200191505060405180910390fd5b6004600081905550600460009054906101000a900473ffffffffffffffffffffffffffffffffffffffff1673ffffffffffffffffffffffffffffffffffffffff166001546002540160405180600001905060006040518083038185875af1925050503d806000811461022d576040519150601f19603f3d011682016040523d82523d6000602084013e610232565b606091505b505050600560009054906101000a900473ffffffffffffffffffffffffffffffffffffffff1673ffffffffffffffffffffffffffffffffffffffff1660035460405180600001905060006040518083038185875af1925050503d80600081146102b7576040519150601f19603f3d011682016040523d82523d6000602084013e6102bc565b606091505b505050565b600260005414610339576040517f08c379a00000000000000000000000000000000000000000000000000000000081526004018080602001828103825260118152602001807f65737461646f20696e636f72726563746f00000000000000000000000000000081525060200191505060405180910390fd5b6001546003540134146103b4576040517f08c379a00000000000000000000000000000000000000000000000000000000081526004018080602001828103825260128152602001807f666f6e646f7320696e636f72726563746f73000000000000000000000000000081525060200191505060405180910390fd5b33600560006101000a81548173ffffffffffffffffffffffffffffffffffffffff021916908373ffffffffffffffffffffffffffffffffffffffff1602179055506003600081905550565b600160005414610477576040517f08c379a00000000000000000000000000000000000000000000000000000000081526004018080602001828103825260118152602001807f65737461646f20696e636f72726563746f00000000000000000000000000000081525060200191505060405180910390fd5b60025434146104ee576040517f08c379a00000000000000000000000000000000000000000000000000000000081526004018080602001828103825260128152602001807f666f6e646f7320696e636f72726563746f73000000000000000000000000000081525060200191505060405180910390fd5b33600460006101000a81548173ffffffffffffffffffffffffffffffffffffffff021916908373ffffffffffffffffffffffffffffffffffffffff160217905550600260008190555056fea265627a7a7231582070362c4ab3f3e22b3dddaeca71a692f57bd7f01783d075255c656fe841d9653664736f6c63430005100032",
  "source": "pragma solidity 0.5.16;\n\ncontract Compraventa {\n\n    uint constant CONTRATO_CREADO = 1;\n    uint constant VENDEDOR_ENVIO_FONDOS = 2;\n    uint constant COMPRADOR_ENVIO_FONDOS = 3;\n    uint constant FONDOS_LIBERADOS = 4;\n    uint constant FACTOR_DEPOSITO_VENDEDOR = 1;\n    uint constant FACTOR_DEPOSITO_COMPRADOR = 1;\n\n    uint estado;\n    uint precio;\n    uint depositoVendedor;\n    uint depositoComprador;\n    address vendedor;\n    address comprador;\n\n    constructor (uint _precio) public {\n        precio = _precio;\n        depositoVendedor = _precio * FACTOR_DEPOSITO_VENDEDOR;\n        depositoComprador = _precio * FACTOR_DEPOSITO_COMPRADOR;\n        estado = CONTRATO_CREADO;\n    }\n\n    function enviarFondosVendedor () public payable {\n        require(estado == CONTRATO_CREADO, \"estado incorrecto\");\n        require(msg.value == depositoVendedor, \"fondos incorrectos\");\n        vendedor = msg.sender;\n        estado = VENDEDOR_ENVIO_FONDOS;\n    }\n\n    function enviarFondosComprador () public payable {\n        require(estado == VENDEDOR_ENVIO_FONDOS, \"estado incorrecto\");\n        require(msg.value == depositoComprador + precio, \"fondos incorrectos\");\n        comprador = msg.sender;\n        estado = COMPRADOR_ENVIO_FONDOS;\n    }\n\n    function liberarFondos () public {\n        require(estado == COMPRADOR_ENVIO_FONDOS, \"estado incorrecto\");\n        require(msg.sender == comprador, \"emisor incorrecto\");\n        estado = FONDOS_LIBERADOS;\n        vendedor.call.value(depositoVendedor + precio)(\"\");\n        comprador.call.value(depositoComprador)(\"\");\n    }\n\n}\n",
  "sourcePath": "/home/e18r/code/markethPlace/contracts/Compraventa.sol",
  "compiler": {
    "name": "solc",
    "version": "0.5.16+commit.9c3226ce.Emscripten.clang"
  },
  "schemaVersion": "3.2.2",
  "updatedAt": "2020-07-17T00:49:29.919Z",
  "devdoc": {
    "methods": {}
  },
  "userdoc": {
    "methods": {}
  }
}